{
  "_format": "hh3-artifact-1",
  "contractName": "WealthOSServantModule",
  "sourceName": "contracts/modules/ServantModule.module.sol",
  "abi": [
    {
      "inputs": [
        {
          "internalType": "address",
          "name": "forwarder",
          "type": "address"
        }
      ],
      "stateMutability": "nonpayable",
      "type": "constructor"
    },
    {
      "inputs": [],
      "name": "AccessControlBadConfirmation",
      "type": "error"
    },
    {
      "inputs": [
        {
          "internalType": "address",
          "name": "account",
          "type": "address"
        },
        {
          "internalType": "bytes32",
          "name": "neededRole",
          "type": "bytes32"
        }
      ],
      "name": "AccessControlUnauthorizedAccount",
      "type": "error"
    },
    {
      "inputs": [
        {
          "internalType": "address",
          "name": "target",
          "type": "address"
        }
      ],
      "name": "AddressEmptyCode",
      "type": "error"
    },
    {
      "inputs": [],
      "name": "ApprovalExpired",
      "type": "error"
    },
    {
      "inputs": [
        {
          "internalType": "uint256",
          "name": "providedTime",
          "type": "uint256"
        },
        {
          "internalType": "uint256",
          "name": "min",
          "type": "uint256"
        },
        {
          "internalType": "uint256",
          "name": "max",
          "type": "uint256"
        }
      ],
      "name": "ApprovalTimeOutOfRange",
      "type": "error"
    },
    {
      "inputs": [],
      "name": "CannotApproveIfTimeIsZeroWithoutFunctionSelectors",
      "type": "error"
    },
    {
      "inputs": [
        {
          "internalType": "address",
          "name": "implementation",
          "type": "address"
        }
      ],
      "name": "ERC1967InvalidImplementation",
      "type": "error"
    },
    {
      "inputs": [],
      "name": "ERC1967NonPayable",
      "type": "error"
    },
    {
      "inputs": [],
      "name": "EmptyFunctionSelector",
      "type": "error"
    },
    {
      "inputs": [],
      "name": "FailedCall",
      "type": "error"
    },
    {
      "inputs": [
        {
          "internalType": "bytes",
          "name": "data",
          "type": "bytes"
        }
      ],
      "name": "FunctionCallFailure",
      "type": "error"
    },
    {
      "inputs": [
        {
          "internalType": "bytes4",
          "name": "fnSelector",
          "type": "bytes4"
        }
      ],
      "name": "FunctionNotApproved",
      "type": "error"
    },
    {
      "inputs": [],
      "name": "InvalidInitialization",
      "type": "error"
    },
    {
      "inputs": [],
      "name": "NotApproved",
      "type": "error"
    },
    {
      "inputs": [],
      "name": "NotInitializing",
      "type": "error"
    },
    {
      "inputs": [],
      "name": "ReentrancyGuardReentrantCall",
      "type": "error"
    },
    {
      "inputs": [],
      "name": "UUPSUnauthorizedCallContext",
      "type": "error"
    },
    {
      "inputs": [
        {
          "internalType": "bytes32",
          "name": "slot",
          "type": "bytes32"
        }
      ],
      "name": "UUPSUnsupportedProxiableUUID",
      "type": "error"
    },
    {
      "inputs": [],
      "name": "UnauthorizedModule",
      "type": "error"
    },
    {
      "inputs": [],
      "name": "ZeroAddress",
      "type": "error"
    },
    {
      "anonymous": false,
      "inputs": [
        {
          "indexed": true,
          "internalType": "address",
          "name": "user",
          "type": "address"
        },
        {
          "indexed": false,
          "internalType": "bytes4",
          "name": "selector",
          "type": "bytes4"
        },
        {
          "indexed": false,
          "internalType": "uint256",
          "name": "time",
          "type": "uint256"
        },
        {
          "indexed": false,
          "internalType": "uint256",
          "name": "timestamp",
          "type": "uint256"
        }
      ],
      "name": "Approved",
      "type": "event"
    },
    {
      "anonymous": false,
      "inputs": [
        {
          "indexed": true,
          "internalType": "address",
          "name": "user",
          "type": "address"
        },
        {
          "indexed": true,
          "internalType": "address",
          "name": "module",
          "type": "address"
        },
        {
          "indexed": false,
          "internalType": "bytes",
          "name": "data",
          "type": "bytes"
        },
        {
          "indexed": false,
          "internalType": "uint256",
          "name": "timestamp",
          "type": "uint256"
        }
      ],
      "name": "Executed",
      "type": "event"
    },
    {
      "anonymous": false,
      "inputs": [
        {
          "indexed": true,
          "internalType": "address",
          "name": "user",
          "type": "address"
        },
        {
          "indexed": false,
          "internalType": "bytes4",
          "name": "selector",
          "type": "bytes4"
        },
        {
          "indexed": false,
          "internalType": "uint256",
          "name": "timestamp",
          "type": "uint256"
        }
      ],
      "name": "FunctionRevoked",
      "type": "event"
    },
    {
      "anonymous": false,
      "inputs": [
        {
          "indexed": false,
          "internalType": "uint64",
          "name": "version",
          "type": "uint64"
        }
      ],
      "name": "Initialized",
      "type": "event"
    },
    {
      "anonymous": false,
      "inputs": [
        {
          "indexed": true,
          "internalType": "address",
          "name": "user",
          "type": "address"
        },
        {
          "indexed": false,
          "internalType": "uint256",
          "name": "timestamp",
          "type": "uint256"
        }
      ],
      "name": "Revoked",
      "type": "event"
    },
    {
      "anonymous": false,
      "inputs": [
        {
          "indexed": true,
          "internalType": "bytes32",
          "name": "role",
          "type": "bytes32"
        },
        {
          "indexed": true,
          "internalType": "bytes32",
          "name": "previousAdminRole",
          "type": "bytes32"
        },
        {
          "indexed": true,
          "internalType": "bytes32",
          "name": "newAdminRole",
          "type": "bytes32"
        }
      ],
      "name": "RoleAdminChanged",
      "type": "event"
    },
    {
      "anonymous": false,
      "inputs": [
        {
          "indexed": true,
          "internalType": "bytes32",
          "name": "role",
          "type": "bytes32"
        },
        {
          "indexed": true,
          "internalType": "address",
          "name": "account",
          "type": "address"
        },
        {
          "indexed": true,
          "internalType": "address",
          "name": "sender",
          "type": "address"
        }
      ],
      "name": "RoleGranted",
      "type": "event"
    },
    {
      "anonymous": false,
      "inputs": [
        {
          "indexed": true,
          "internalType": "bytes32",
          "name": "role",
          "type": "bytes32"
        },
        {
          "indexed": true,
          "internalType": "address",
          "name": "account",
          "type": "address"
        },
        {
          "indexed": true,
          "internalType": "address",
          "name": "sender",
          "type": "address"
        }
      ],
      "name": "RoleRevoked",
      "type": "event"
    },
    {
      "anonymous": false,
      "inputs": [
        {
          "indexed": true,
          "internalType": "address",
          "name": "implementation",
          "type": "address"
        }
      ],
      "name": "Upgraded",
      "type": "event"
    },
    {
      "inputs": [],
      "name": "DEFAULT_ADMIN_ROLE",
      "outputs": [
        {
          "internalType": "bytes32",
          "name": "",
          "type": "bytes32"
        }
      ],
      "stateMutability": "view",
      "type": "function"
    },
    {
      "inputs": [],
      "name": "MAX_APPROVAL_TIME",
      "outputs": [
        {
          "internalType": "uint256",
          "name": "",
          "type": "uint256"
        }
      ],
      "stateMutability": "view",
      "type": "function"
    },
    {
      "inputs": [],
      "name": "MIN_APPROVAL_TIME",
      "outputs": [
        {
          "internalType": "uint256",
          "name": "",
          "type": "uint256"
        }
      ],
      "stateMutability": "view",
      "type": "function"
    },
    {
      "inputs": [],
      "name": "SERVANT_ROLE",
      "outputs": [
        {
          "internalType": "bytes32",
          "name": "",
          "type": "bytes32"
        }
      ],
      "stateMutability": "view",
      "type": "function"
    },
    {
      "inputs": [],
      "name": "UPGRADE_INTERFACE_VERSION",
      "outputs": [
        {
          "internalType": "string",
          "name": "",
          "type": "string"
        }
      ],
      "stateMutability": "view",
      "type": "function"
    },
    {
      "inputs": [
        {
          "internalType": "address",
          "name": "",
          "type": "address"
        }
      ],
      "name": "allFnsApproved",
      "outputs": [
        {
          "internalType": "bool",
          "name": "",
          "type": "bool"
        }
      ],
      "stateMutability": "view",
      "type": "function"
    },
    {
      "inputs": [
        {
          "internalType": "uint256",
          "name": "time",
          "type": "uint256"
        },
        {
          "internalType": "bytes4[]",
          "name": "addedfnSelectors",
          "type": "bytes4[]"
        }
      ],
      "name": "approve",
      "outputs": [],
      "stateMutability": "nonpayable",
      "type": "function"
    },
    {
      "inputs": [
        {
          "internalType": "address[]",
          "name": "modules",
          "type": "address[]"
        }
      ],
      "name": "authorizeModule",
      "outputs": [],
      "stateMutability": "nonpayable",
      "type": "function"
    },
    {
      "inputs": [
        {
          "internalType": "address",
          "name": "",
          "type": "address"
        }
      ],
      "name": "authorizedModules",
      "outputs": [
        {
          "internalType": "bool",
          "name": "",
          "type": "bool"
        }
      ],
      "stateMutability": "view",
      "type": "function"
    },
    {
      "inputs": [
        {
          "internalType": "address",
          "name": "user",
          "type": "address"
        },
        {
          "internalType": "address",
          "name": "module",
          "type": "address"
        },
        {
          "internalType": "bytes",
          "name": "data",
          "type": "bytes"
        }
      ],
      "name": "execute",
      "outputs": [
        {
          "internalType": "bytes",
          "name": "returnData",
          "type": "bytes"
        }
      ],
      "stateMutability": "nonpayable",
      "type": "function"
    },
    {
      "inputs": [
        {
          "internalType": "bytes32",
          "name": "role",
          "type": "bytes32"
        }
      ],
      "name": "getRoleAdmin",
      "outputs": [
        {
          "internalType": "bytes32",
          "name": "",
          "type": "bytes32"
        }
      ],
      "stateMutability": "view",
      "type": "function"
    },
    {
      "inputs": [
        {
          "internalType": "bytes32",
          "name": "role",
          "type": "bytes32"
        },
        {
          "internalType": "address",
          "name": "account",
          "type": "address"
        }
      ],
      "name": "grantRole",
      "outputs": [],
      "stateMutability": "nonpayable",
      "type": "function"
    },
    {
      "inputs": [
        {
          "internalType": "bytes32",
          "name": "role",
          "type": "bytes32"
        },
        {
          "internalType": "address",
          "name": "account",
          "type": "address"
        }
      ],
      "name": "hasRole",
      "outputs": [
        {
          "internalType": "bool",
          "name": "",
          "type": "bool"
        }
      ],
      "stateMutability": "view",
      "type": "function"
    },
    {
      "inputs": [
        {
          "internalType": "address",
          "name": "trustedForwarder_",
          "type": "address"
        },
        {
          "internalType": "address",
          "name": "_servant",
          "type": "address"
        }
      ],
      "name": "initialize",
      "outputs": [],
      "stateMutability": "nonpayable",
      "type": "function"
    },
    {
      "inputs": [
        {
          "internalType": "address",
          "name": "",
          "type": "address"
        },
        {
          "internalType": "bytes4",
          "name": "",
          "type": "bytes4"
        }
      ],
      "name": "isFnApproved",
      "outputs": [
        {
          "internalType": "bool",
          "name": "",
          "type": "bool"
        }
      ],
      "stateMutability": "view",
      "type": "function"
    },
    {
      "inputs": [
        {
          "internalType": "address",
          "name": "forwarder",
          "type": "address"
        }
      ],
      "name": "isTrustedForwarder",
      "outputs": [
        {
          "internalType": "bool",
          "name": "",
          "type": "bool"
        }
      ],
      "stateMutability": "view",
      "type": "function"
    },
    {
      "inputs": [],
      "name": "proxiableUUID",
      "outputs": [
        {
          "internalType": "bytes32",
          "name": "",
          "type": "bytes32"
        }
      ],
      "stateMutability": "view",
      "type": "function"
    },
    {
      "inputs": [
        {
          "internalType": "bytes32",
          "name": "role",
          "type": "bytes32"
        },
        {
          "internalType": "address",
          "name": "callerConfirmation",
          "type": "address"
        }
      ],
      "name": "renounceRole",
      "outputs": [],
      "stateMutability": "nonpayable",
      "type": "function"
    },
    {
      "inputs": [],
      "name": "revoke",
      "outputs": [],
      "stateMutability": "nonpayable",
      "type": "function"
    },
    {
      "inputs": [
        {
          "internalType": "bytes4[]",
          "name": "removedFnSelectors",
          "type": "bytes4[]"
        }
      ],
      "name": "revokeFunctions",
      "outputs": [],
      "stateMutability": "nonpayable",
      "type": "function"
    },
    {
      "inputs": [
        {
          "internalType": "bytes32",
          "name": "role",
          "type": "bytes32"
        },
        {
          "internalType": "address",
          "name": "account",
          "type": "address"
        }
      ],
      "name": "revokeRole",
      "outputs": [],
      "stateMutability": "nonpayable",
      "type": "function"
    },
    {
      "inputs": [
        {
          "internalType": "bytes4",
          "name": "interfaceId",
          "type": "bytes4"
        }
      ],
      "name": "supportsInterface",
      "outputs": [
        {
          "internalType": "bool",
          "name": "",
          "type": "bool"
        }
      ],
      "stateMutability": "view",
      "type": "function"
    },
    {
      "inputs": [],
      "name": "trustedForwarder",
      "outputs": [
        {
          "internalType": "address",
          "name": "",
          "type": "address"
        }
      ],
      "stateMutability": "view",
      "type": "function"
    },
    {
      "inputs": [
        {
          "internalType": "address[]",
          "name": "modules",
          "type": "address[]"
        }
      ],
      "name": "unauthorizeModule",
      "outputs": [],
      "stateMutability": "nonpayable",
      "type": "function"
    },
    {
      "inputs": [
        {
          "internalType": "address",
          "name": "newImplementation",
          "type": "address"
        },
        {
          "internalType": "bytes",
          "name": "data",
          "type": "bytes"
        }
      ],
      "name": "upgradeToAndCall",
      "outputs": [],
      "stateMutability": "payable",
      "type": "function"
    },
    {
      "inputs": [
        {
          "internalType": "address",
          "name": "",
          "type": "address"
        }
      ],
      "name": "userApprovalExpiry",
      "outputs": [
        {
          "internalType": "uint256",
          "name": "",
          "type": "uint256"
        }
      ],
      "stateMutability": "view",
      "type": "function"
    },
    {
      "inputs": [],
      "name": "version",
      "outputs": [
        {
          "internalType": "string",
          "name": "",
          "type": "string"
        }
      ],
      "stateMutability": "pure",
      "type": "function"
    }
  ],
  "bytecode": "0x60c03461011357601f61190e38819003918201601f19168301916001600160401b038311848410176101175780849260209460405283398101031261011357516001600160a01b0381168103610113573060805260a0525f5160206118ee5f395f51905f525460ff8160401c16610104576002600160401b03196001600160401b038216016100ae575b6040516117c2908161012c82396080518181816108780152610948015260a051815050f35b6001600160401b0319166001600160401b039081175f5160206118ee5f395f51905f52556040519081527fc7f505b2f371ae2175ee4913f4499e1f2633a7b5936321eed1cdaeb6115181d290602090a15f610089565b63f92ee8a960e01b5f5260045ffd5b5f80fd5b634e487b7160e01b5f52604160045260245ffdfe6080806040526004361015610012575f80fd5b5f3560e01c90816301ffc9a7146110ca57508063162dc64d1461109057806317f6fe5b14611053578063182c78dc14610df55780631a14c87814610dbd578063248a9ca314610d7e5780632d9ffc3214610d235780632f2ff15d14610cd957806336568abe14610c85578063485cc95514610ad65780634f1ef286146108cc57806352d1902d1461086657806354fd4d501461081f578063572b6c05146107eb5780635d0d1662146107cf578063689f5a1c14610750578063736d3b6a146107335780637da0a8771461070c57806391d14854146106b757806395a89c4714610622578063a217fddf14610608578063ad3cb1cc146105c1578063b6549f7514610566578063d547741f14610515578063f5542f2d14610278578063f79c7f7f146101865763f855ec4e14610145575f80fd5b34610182576020366003190112610182576001600160a01b0361016661111d565b165f526002602052602060ff60405f2054166040519015158152f35b5f80fd5b346101825760203660031901126101825760043567ffffffffffffffff8111610182576101b7903690600401611149565b906101c0611649565b6001600160a01b03165f5b8381106101d457005b80827fe626bafdcb34d7a69570e14b2f7c5aaa0a76b2ae6a88a2c6979f67780fc3783a604061020e6102096001968a8a6111f0565b611214565b835f526003602052815f209063ffffffff60e01b1690815f5260205260ff825f2054168061026f575b61024e575b8151908152426020820152a2016101cb565b835f526003602052815f20815f52602052815f2060ff19815416905561023c565b50801515610237565b346101825760603660031901126101825761029161111d565b610299611133565b906044359167ffffffffffffffff831161018257366023840112156101825782600401359167ffffffffffffffff83116101825760248401936024843692010111610182576102e6611649565b6001600160a01b0381165f9081527f6f93c47de910d80630db852e09ddfad7656658433a81d9752bfae03a9672f162602052604090205460ff16156104d1575060025f51602061174d5f395f51905f5254146104c25760025f51602061174d5f395f51905f52556001600160a01b03165f8181526001602052604090205442116104b3576001600160a01b0382165f8181526004602052604090205490929060ff16156104a457815f52600260205260ff60405f20541615610461575b5f809160405186888237828188810182815203925af1926103c261123d565b931561043757610433947fba8de7fee5c88ca4a3e8479a8da37e4104ac928b1b31bea9f8797339846c238c9161040560405192839260408452604084019161126c565b4260208301520390a360015f51602061174d5f395f51905f52556040519182916020835260208301906111cc565b0390f35b604051636dadd7df60e11b81526020600482015290819061045d9060248301908861126c565b0390fd5b815f52600360205260405f2063ffffffff60e01b86351690815f5260205260ff60405f2054161561049257506103a3565b63ff1ad74960e01b5f5260045260245ffd5b63584b7e7160e01b5f5260045ffd5b634aad99a560e11b5f5260045ffd5b633ee5aeb560e01b5f5260045ffd5b63e2517d3f60e01b5f9081526001600160a01b03919091166004527f0941b16e931bf950a779d04f1fe80664559f8035f4da8fbd6f83dbdb5c43364a602452604490fd5b3461018257604036600319011261018257610564600435610534611133565b9061055f61055a825f525f51602061172d5f395f51905f52602052600160405f20015490565b6112f4565b6115a0565b005b34610182575f366003190112610182576001600160a01b03610586611649565b16805f5260016020525f60408120557f713b90881ad62c4fa8ab6bd9197fa86481fc0c11b2edba60026514281b2dbac46020604051428152a2005b34610182575f366003190112610182576104336040516105e260408261117a565b60058152640352e302e360dc1b60208201526040519182916020835260208301906111cc565b34610182575f3660031901126101825760206040515f8152f35b346101825760203660031901126101825760043567ffffffffffffffff811161018257610653903690600401611149565b9061065c61128c565b5f5b82811061066757005b6001600160a01b0361068261067d8386866111f0565b611229565b169081156106a8576001915f52600460205260405f208260ff198254161790550161065e565b63d92e233d60e01b5f5260045ffd5b34610182576040366003190112610182576106d0611133565b6004355f525f51602061172d5f395f51905f5260205260405f209060018060a01b03165f52602052602060ff60405f2054166040519015158152f35b34610182575f366003190112610182575f546040516001600160a01b039091168152602090f35b34610182575f3660031901126101825760206040516224ea008152f35b346101825760203660031901126101825760043567ffffffffffffffff811161018257610781903690600401611149565b9061078a61128c565b5f5b82811061079557005b6001600160a01b036107ab61067d8386866111f0565b169081156106a8576001915f52600460205260405f2060ff1981541690550161078c565b34610182575f366003190112610182576020604051610e108152f35b3461018257602036600319011261018257602061080661111d565b5f546040516001600160a01b0392831691909216148152f35b34610182575f3660031901126101825761043360405161084060408261117a565b60058152640312e302e360dc1b60208201526040519182916020835260208301906111cc565b34610182575f366003190112610182577f00000000000000000000000000000000000000000000000000000000000000006001600160a01b031630036108bd5760206040515f51602061170d5f395f51905f528152f35b63703e46dd60e11b5f5260045ffd5b6040366003190112610182576108e061111d565b6024359067ffffffffffffffff821161018257366023830112156101825781600401359061090d826111b0565b9161091b604051938461117a565b8083526020830193366024838301011161018257815f926024602093018737840101526001600160a01b037f000000000000000000000000000000000000000000000000000000000000000016308114908115610ab4575b506108bd5761098061128c565b6040516352d1902d60e01b81526001600160a01b0382169390602081600481885afa5f9181610a80575b506109c25784634c9c8ce360e01b5f5260045260245ffd5b805f51602061170d5f395f51905f52869203610a6e5750823b15610a5c575f51602061170d5f395f51905f5280546001600160a01b031916821790557fbc7cd75a20ee27fd9adebab32041f755214dbc6bffa90cc0225b39da2e5c2d3b5f80a2825115610a43575f8091610564945190845af4610a3d61123d565b916116ae565b50505034610a4d57005b63b398979f60e01b5f5260045ffd5b634c9c8ce360e01b5f5260045260245ffd5b632a87526960e21b5f5260045260245ffd5b9091506020813d602011610aac575b81610a9c6020938361117a565b81010312610182575190866109aa565b3d9150610a8f565b5f51602061170d5f395f51905f52546001600160a01b03161415905084610973565b3461018257604036600319011261018257610aef61111d565b610af7611133565b905f51602061176d5f395f51905f525460ff8160401c16159267ffffffffffffffff821680159081610c7d575b6001149081610c73575b159081610c6a575b50610c5b5767ffffffffffffffff1982166001175f51602061176d5f395f51905f5255610bb39184610c2f575b50610b6c611683565b610b74611683565b610b7c611683565b610b84611683565b610b8c611683565b60015f51602061174d5f395f51905f5255610bad610ba8611649565b611350565b50611412565b5060018060a01b03166bffffffffffffffffffffffff60a01b5f5416175f55610bd857005b68ff0000000000000000195f51602061176d5f395f51905f5254165f51602061176d5f395f51905f52557fc7f505b2f371ae2175ee4913f4499e1f2633a7b5936321eed1cdaeb6115181d2602060405160018152a1005b68ffffffffffffffffff191668010000000000000001175f51602061176d5f395f51905f525584610b63565b63f92ee8a960e01b5f5260045ffd5b90501585610b36565b303b159150610b2e565b859150610b24565b3461018257604036600319011261018257610c9e611133565b6001600160a01b03610cae611649565b166001600160a01b03821603610cca57610564906004356115a0565b63334bd91960e11b5f5260045ffd5b3461018257604036600319011261018257610564600435610cf8611133565b90610d1e61055a825f525f51602061172d5f395f51905f52602052600160405f20015490565b6114ef565b3461018257604036600319011261018257610d3c61111d565b6024359063ffffffff60e01b82168092036101825760018060a01b03165f52600360205260405f20905f52602052602060ff60405f2054166040519015158152f35b34610182576020366003190112610182576020610db56004355f525f51602061172d5f395f51905f52602052600160405f20015490565b604051908152f35b34610182576020366003190112610182576001600160a01b03610dde61111d565b165f526001602052602060405f2054604051908152f35b346101825760403660031901126101825760043560243567ffffffffffffffff811161018257610e29903690600401611149565b91908115801591828061103c575b61101c57610e43611649565b9480610ef2575050610ee35760018060a01b038316805f52600260205260405f20600160ff198254161790557f95aa1b52e30df48ad9a6429dcb88642886722673895e6c0a0fedab210c5c454160606040515f8152856020820152426040820152a25b610eac57005b420190814211610ecf576001600160a01b03165f90815260016020526040902055005b634e487b7160e01b5f52601160045260245ffd5b630ad3fe5f60e21b5f5260045ffd5b6001600160a01b03861692505f5b818110610f22575050505f52600260205260405f2060ff198154169055610ea6565b80847f95aa1b52e30df48ad9a6429dcb88642886722673895e6c0a0fedab210c5c4541610fb2610f58610209600196888a6111f0565b835f52600360205260405f2063ffffffff60e01b821690815f5260205260ff60405f2054161580611013575b610fbb575b50604080516001600160e01b03199092168252602082018c905242908201529081906060820190565b0390a201610f00565b845f52600360205260405f20905f5260205260405f208660ff19825416179055838361100a8d60405191829142908784604091949392606082019563ffffffff60e01b16825260208201520152565b0390a28c610f89565b50801515610f84565b8363026b9d2d60e11b5f52600452610e106024526224ea0060445260645ffd5b50610e10841080610e3757506224ea008411610e37565b34610182576020366003190112610182576001600160a01b0361107461111d565b165f526004602052602060ff60405f2054166040519015158152f35b34610182575f3660031901126101825760206040517f0941b16e931bf950a779d04f1fe80664559f8035f4da8fbd6f83dbdb5c43364a8152f35b34610182576020366003190112610182576004359063ffffffff60e01b821680920361018257602091637965db0b60e01b811490811561110c575b5015158152f35b6301ffc9a760e01b14905083611105565b600435906001600160a01b038216820361018257565b602435906001600160a01b038216820361018257565b9181601f840112156101825782359167ffffffffffffffff8311610182576020808501948460051b01011161018257565b90601f8019910116810190811067ffffffffffffffff82111761119c57604052565b634e487b7160e01b5f52604160045260245ffd5b67ffffffffffffffff811161119c57601f01601f191660200190565b805180835260209291819084018484015e5f828201840152601f01601f1916010190565b91908110156112005760051b0190565b634e487b7160e01b5f52603260045260245ffd5b356001600160e01b0319811681036101825790565b356001600160a01b03811681036101825790565b3d15611267573d9061124e826111b0565b9161125c604051938461117a565b82523d5f602084013e565b606090565b908060209392818452848401375f828201840152601f01601f1916010190565b611294611649565b6001600160a01b0381165f9081527fb7db2dd08fcb62d0c9e08c51941cae53c267786a0b75803fb7960902fc8ef97d602052604090205460ff16156112d65750565b63e2517d3f60e01b5f5260018060a01b03166004525f60245260445ffd5b6112fc611649565b815f525f51602061172d5f395f51905f5260205260405f2060018060a01b0382165f5260205260ff60405f20541615611333575050565b63e2517d3f60e01b5f5260018060a01b031660045260245260445ffd5b6001600160a01b0381165f9081527fb7db2dd08fcb62d0c9e08c51941cae53c267786a0b75803fb7960902fc8ef97d602052604090205460ff1661140d576001600160a01b038181165f9081527fb7db2dd08fcb62d0c9e08c51941cae53c267786a0b75803fb7960902fc8ef97d60205260409020805460ff191660011790556113d8611649565b16906001600160a01b03165f7f2f8788117e7eff1d82e926ec794901d17c78024a50270940304540a733656f0d8180a4600190565b505f90565b6001600160a01b0381165f9081527f6f93c47de910d80630db852e09ddfad7656658433a81d9752bfae03a9672f162602052604090205460ff1661140d576001600160a01b038181165f9081527f6f93c47de910d80630db852e09ddfad7656658433a81d9752bfae03a9672f16260205260409020805460ff1916600117905561149a611649565b16906001600160a01b03167f0941b16e931bf950a779d04f1fe80664559f8035f4da8fbd6f83dbdb5c43364a7f2f8788117e7eff1d82e926ec794901d17c78024a50270940304540a733656f0d5f80a4600190565b5f8181525f51602061172d5f395f51905f52602090815260408083206001600160a01b038616845290915290205460ff1661159a575f8181525f51602061172d5f395f51905f52602090815260408083206001600160a01b0386811685529252909120805460ff19166001179055611565611649565b16916001600160a01b0316907f2f8788117e7eff1d82e926ec794901d17c78024a50270940304540a733656f0d5f80a4600190565b50505f90565b5f8181525f51602061172d5f395f51905f52602090815260408083206001600160a01b038616845290915290205460ff161561159a575f8181525f51602061172d5f395f51905f52602090815260408083206001600160a01b0386811685529252909120805460ff19169055611614611649565b16916001600160a01b0316907ff6391f5c32d9c69d2a47ea670b442974b53935d1edc7fd64eb21e047a839171b5f80a4600190565b601436101580611670575b1561166c576013193601368111610182573560601c90565b3390565b505f546001600160a01b03163314611654565b60ff5f51602061176d5f395f51905f525460401c161561169f57565b631afcd79f60e31b5f5260045ffd5b906116d257508051156116c357602081519101fd5b63d6bda27560e01b5f5260045ffd5b81511580611703575b6116e3575090565b639996b31560e01b5f9081526001600160a01b0391909116600452602490fd5b50803b156116db56fe360894a13ba1a3210667c828492db98dca3e2076cc3735a920a3ca505d382bbc02dd7bc7dec4dceedda775e58dd541e08a116c6c53815c0bd028192f7b6268009b779b17422d0df92223018b32b4d1fa46e071723d6817e2486d003becc55f00f0c57e16840df040f15088dc2f81fe391c3923bec73e23a9662efc9c229c6a00a2646970667358221220a99fc76d97b9636accc97024e40d111e69119a860371f8cf59be8cf9efc5bcac64736f6c634300081e0033f0c57e16840df040f15088dc2f81fe391c3923bec73e23a9662efc9c229c6a00",
  "linkReferences": {},
  "deployedLinkReferences": {},
  "immutableReferences": {
    "801": [
      {
        "length": 32,
        "start": 2168
      },
      {
        "length": 32,
        "start": 2376
      }
    ]
  },
  "inputSourceName": "project/contracts/modules/ServantModule.module.sol",
  "buildInfoId": "solc-0_8_30-bca96024669a61c2da385597f93d1f3ac5d63ee0"
}