{
  "_format": "hh3-artifact-1",
  "contractName": "WealthOSServantModule",
  "sourceName": "contracts/modules/ServantModule.module.sol",
  "abi": [
    {
      "inputs": [
        {
          "internalType": "address",
          "name": "forwarder",
          "type": "address"
        }
      ],
      "stateMutability": "nonpayable",
      "type": "constructor"
    },
    {
      "inputs": [],
      "name": "AccessControlBadConfirmation",
      "type": "error"
    },
    {
      "inputs": [
        {
          "internalType": "address",
          "name": "account",
          "type": "address"
        },
        {
          "internalType": "bytes32",
          "name": "neededRole",
          "type": "bytes32"
        }
      ],
      "name": "AccessControlUnauthorizedAccount",
      "type": "error"
    },
    {
      "inputs": [
        {
          "internalType": "address",
          "name": "target",
          "type": "address"
        }
      ],
      "name": "AddressEmptyCode",
      "type": "error"
    },
    {
      "inputs": [],
      "name": "AlreadyNotApproved",
      "type": "error"
    },
    {
      "inputs": [],
      "name": "ApprovalExpired",
      "type": "error"
    },
    {
      "inputs": [
        {
          "internalType": "uint256",
          "name": "providedTime",
          "type": "uint256"
        },
        {
          "internalType": "uint256",
          "name": "min",
          "type": "uint256"
        },
        {
          "internalType": "uint256",
          "name": "max",
          "type": "uint256"
        }
      ],
      "name": "ApprovalTimeOutOfRange",
      "type": "error"
    },
    {
      "inputs": [],
      "name": "CannotApproveIfTimeIsZeroWithoutFunctionSelectors",
      "type": "error"
    },
    {
      "inputs": [
        {
          "internalType": "address",
          "name": "implementation",
          "type": "address"
        }
      ],
      "name": "ERC1967InvalidImplementation",
      "type": "error"
    },
    {
      "inputs": [],
      "name": "ERC1967NonPayable",
      "type": "error"
    },
    {
      "inputs": [],
      "name": "EmptyFunctionSelector",
      "type": "error"
    },
    {
      "inputs": [],
      "name": "FailedCall",
      "type": "error"
    },
    {
      "inputs": [
        {
          "internalType": "bytes",
          "name": "data",
          "type": "bytes"
        }
      ],
      "name": "FunctionCallFailure",
      "type": "error"
    },
    {
      "inputs": [
        {
          "internalType": "bytes4",
          "name": "fnSelector",
          "type": "bytes4"
        }
      ],
      "name": "FunctionNotApproved",
      "type": "error"
    },
    {
      "inputs": [],
      "name": "InvalidInitialization",
      "type": "error"
    },
    {
      "inputs": [],
      "name": "NotApproved",
      "type": "error"
    },
    {
      "inputs": [],
      "name": "NotInitializing",
      "type": "error"
    },
    {
      "inputs": [],
      "name": "ReentrancyGuardReentrantCall",
      "type": "error"
    },
    {
      "inputs": [],
      "name": "UUPSUnauthorizedCallContext",
      "type": "error"
    },
    {
      "inputs": [
        {
          "internalType": "bytes32",
          "name": "slot",
          "type": "bytes32"
        }
      ],
      "name": "UUPSUnsupportedProxiableUUID",
      "type": "error"
    },
    {
      "inputs": [],
      "name": "UnauthorizedModule",
      "type": "error"
    },
    {
      "inputs": [],
      "name": "ZeroAddress",
      "type": "error"
    },
    {
      "anonymous": false,
      "inputs": [
        {
          "indexed": true,
          "internalType": "address",
          "name": "user",
          "type": "address"
        },
        {
          "indexed": false,
          "internalType": "bytes4[]",
          "name": "selector",
          "type": "bytes4[]"
        },
        {
          "indexed": false,
          "internalType": "uint256",
          "name": "time",
          "type": "uint256"
        }
      ],
      "name": "Approved",
      "type": "event"
    },
    {
      "anonymous": false,
      "inputs": [
        {
          "indexed": true,
          "internalType": "address",
          "name": "user",
          "type": "address"
        },
        {
          "indexed": true,
          "internalType": "address",
          "name": "module",
          "type": "address"
        },
        {
          "indexed": false,
          "internalType": "bytes",
          "name": "data",
          "type": "bytes"
        }
      ],
      "name": "Executed",
      "type": "event"
    },
    {
      "anonymous": false,
      "inputs": [
        {
          "indexed": false,
          "internalType": "uint64",
          "name": "version",
          "type": "uint64"
        }
      ],
      "name": "Initialized",
      "type": "event"
    },
    {
      "anonymous": false,
      "inputs": [
        {
          "indexed": true,
          "internalType": "address",
          "name": "user",
          "type": "address"
        },
        {
          "indexed": false,
          "internalType": "bytes4[]",
          "name": "selector",
          "type": "bytes4[]"
        },
        {
          "indexed": false,
          "internalType": "bool",
          "name": "timeResetted",
          "type": "bool"
        }
      ],
      "name": "Revoked",
      "type": "event"
    },
    {
      "anonymous": false,
      "inputs": [
        {
          "indexed": true,
          "internalType": "bytes32",
          "name": "role",
          "type": "bytes32"
        },
        {
          "indexed": true,
          "internalType": "bytes32",
          "name": "previousAdminRole",
          "type": "bytes32"
        },
        {
          "indexed": true,
          "internalType": "bytes32",
          "name": "newAdminRole",
          "type": "bytes32"
        }
      ],
      "name": "RoleAdminChanged",
      "type": "event"
    },
    {
      "anonymous": false,
      "inputs": [
        {
          "indexed": true,
          "internalType": "bytes32",
          "name": "role",
          "type": "bytes32"
        },
        {
          "indexed": true,
          "internalType": "address",
          "name": "account",
          "type": "address"
        },
        {
          "indexed": true,
          "internalType": "address",
          "name": "sender",
          "type": "address"
        }
      ],
      "name": "RoleGranted",
      "type": "event"
    },
    {
      "anonymous": false,
      "inputs": [
        {
          "indexed": true,
          "internalType": "bytes32",
          "name": "role",
          "type": "bytes32"
        },
        {
          "indexed": true,
          "internalType": "address",
          "name": "account",
          "type": "address"
        },
        {
          "indexed": true,
          "internalType": "address",
          "name": "sender",
          "type": "address"
        }
      ],
      "name": "RoleRevoked",
      "type": "event"
    },
    {
      "anonymous": false,
      "inputs": [
        {
          "indexed": true,
          "internalType": "address",
          "name": "implementation",
          "type": "address"
        }
      ],
      "name": "Upgraded",
      "type": "event"
    },
    {
      "inputs": [],
      "name": "DEFAULT_ADMIN_ROLE",
      "outputs": [
        {
          "internalType": "bytes32",
          "name": "",
          "type": "bytes32"
        }
      ],
      "stateMutability": "view",
      "type": "function"
    },
    {
      "inputs": [],
      "name": "MAX_APPROVAL_TIME",
      "outputs": [
        {
          "internalType": "uint256",
          "name": "",
          "type": "uint256"
        }
      ],
      "stateMutability": "view",
      "type": "function"
    },
    {
      "inputs": [],
      "name": "MIN_APPROVAL_TIME",
      "outputs": [
        {
          "internalType": "uint256",
          "name": "",
          "type": "uint256"
        }
      ],
      "stateMutability": "view",
      "type": "function"
    },
    {
      "inputs": [],
      "name": "SERVANT_ROLE",
      "outputs": [
        {
          "internalType": "bytes32",
          "name": "",
          "type": "bytes32"
        }
      ],
      "stateMutability": "view",
      "type": "function"
    },
    {
      "inputs": [],
      "name": "UPGRADE_INTERFACE_VERSION",
      "outputs": [
        {
          "internalType": "string",
          "name": "",
          "type": "string"
        }
      ],
      "stateMutability": "view",
      "type": "function"
    },
    {
      "inputs": [
        {
          "internalType": "address",
          "name": "",
          "type": "address"
        }
      ],
      "name": "allFnsApproved",
      "outputs": [
        {
          "internalType": "bool",
          "name": "",
          "type": "bool"
        }
      ],
      "stateMutability": "view",
      "type": "function"
    },
    {
      "inputs": [
        {
          "internalType": "uint256",
          "name": "time",
          "type": "uint256"
        },
        {
          "internalType": "bytes4[]",
          "name": "fnSelectors",
          "type": "bytes4[]"
        }
      ],
      "name": "approve",
      "outputs": [],
      "stateMutability": "nonpayable",
      "type": "function"
    },
    {
      "inputs": [
        {
          "internalType": "address[]",
          "name": "modules",
          "type": "address[]"
        }
      ],
      "name": "authorizeModule",
      "outputs": [],
      "stateMutability": "nonpayable",
      "type": "function"
    },
    {
      "inputs": [
        {
          "internalType": "address",
          "name": "",
          "type": "address"
        }
      ],
      "name": "authorizedModules",
      "outputs": [
        {
          "internalType": "bool",
          "name": "",
          "type": "bool"
        }
      ],
      "stateMutability": "view",
      "type": "function"
    },
    {
      "inputs": [
        {
          "internalType": "address",
          "name": "user",
          "type": "address"
        },
        {
          "internalType": "address",
          "name": "module",
          "type": "address"
        },
        {
          "internalType": "bytes",
          "name": "data",
          "type": "bytes"
        }
      ],
      "name": "execute",
      "outputs": [
        {
          "internalType": "bytes",
          "name": "returnData",
          "type": "bytes"
        }
      ],
      "stateMutability": "nonpayable",
      "type": "function"
    },
    {
      "inputs": [
        {
          "internalType": "bytes32",
          "name": "role",
          "type": "bytes32"
        }
      ],
      "name": "getRoleAdmin",
      "outputs": [
        {
          "internalType": "bytes32",
          "name": "",
          "type": "bytes32"
        }
      ],
      "stateMutability": "view",
      "type": "function"
    },
    {
      "inputs": [
        {
          "internalType": "bytes32",
          "name": "role",
          "type": "bytes32"
        },
        {
          "internalType": "address",
          "name": "account",
          "type": "address"
        }
      ],
      "name": "grantRole",
      "outputs": [],
      "stateMutability": "nonpayable",
      "type": "function"
    },
    {
      "inputs": [
        {
          "internalType": "bytes32",
          "name": "role",
          "type": "bytes32"
        },
        {
          "internalType": "address",
          "name": "account",
          "type": "address"
        }
      ],
      "name": "hasRole",
      "outputs": [
        {
          "internalType": "bool",
          "name": "",
          "type": "bool"
        }
      ],
      "stateMutability": "view",
      "type": "function"
    },
    {
      "inputs": [
        {
          "internalType": "address",
          "name": "trustedForwarder_",
          "type": "address"
        },
        {
          "internalType": "address",
          "name": "_servant",
          "type": "address"
        }
      ],
      "name": "initialize",
      "outputs": [],
      "stateMutability": "nonpayable",
      "type": "function"
    },
    {
      "inputs": [
        {
          "internalType": "address",
          "name": "",
          "type": "address"
        },
        {
          "internalType": "bytes4",
          "name": "",
          "type": "bytes4"
        }
      ],
      "name": "isFnApproved",
      "outputs": [
        {
          "internalType": "bool",
          "name": "",
          "type": "bool"
        }
      ],
      "stateMutability": "view",
      "type": "function"
    },
    {
      "inputs": [
        {
          "internalType": "address",
          "name": "forwarder",
          "type": "address"
        }
      ],
      "name": "isTrustedForwarder",
      "outputs": [
        {
          "internalType": "bool",
          "name": "",
          "type": "bool"
        }
      ],
      "stateMutability": "view",
      "type": "function"
    },
    {
      "inputs": [],
      "name": "proxiableUUID",
      "outputs": [
        {
          "internalType": "bytes32",
          "name": "",
          "type": "bytes32"
        }
      ],
      "stateMutability": "view",
      "type": "function"
    },
    {
      "inputs": [
        {
          "internalType": "bytes32",
          "name": "role",
          "type": "bytes32"
        },
        {
          "internalType": "address",
          "name": "callerConfirmation",
          "type": "address"
        }
      ],
      "name": "renounceRole",
      "outputs": [],
      "stateMutability": "nonpayable",
      "type": "function"
    },
    {
      "inputs": [
        {
          "internalType": "bool",
          "name": "resetTime",
          "type": "bool"
        },
        {
          "internalType": "bytes4[]",
          "name": "fnSelectors",
          "type": "bytes4[]"
        }
      ],
      "name": "revoke",
      "outputs": [],
      "stateMutability": "nonpayable",
      "type": "function"
    },
    {
      "inputs": [
        {
          "internalType": "bytes32",
          "name": "role",
          "type": "bytes32"
        },
        {
          "internalType": "address",
          "name": "account",
          "type": "address"
        }
      ],
      "name": "revokeRole",
      "outputs": [],
      "stateMutability": "nonpayable",
      "type": "function"
    },
    {
      "inputs": [
        {
          "internalType": "bytes4",
          "name": "interfaceId",
          "type": "bytes4"
        }
      ],
      "name": "supportsInterface",
      "outputs": [
        {
          "internalType": "bool",
          "name": "",
          "type": "bool"
        }
      ],
      "stateMutability": "view",
      "type": "function"
    },
    {
      "inputs": [],
      "name": "trustedForwarder",
      "outputs": [
        {
          "internalType": "address",
          "name": "",
          "type": "address"
        }
      ],
      "stateMutability": "view",
      "type": "function"
    },
    {
      "inputs": [
        {
          "internalType": "address[]",
          "name": "modules",
          "type": "address[]"
        }
      ],
      "name": "unauthorizeModule",
      "outputs": [],
      "stateMutability": "nonpayable",
      "type": "function"
    },
    {
      "inputs": [
        {
          "internalType": "address",
          "name": "newImplementation",
          "type": "address"
        },
        {
          "internalType": "bytes",
          "name": "data",
          "type": "bytes"
        }
      ],
      "name": "upgradeToAndCall",
      "outputs": [],
      "stateMutability": "payable",
      "type": "function"
    },
    {
      "inputs": [
        {
          "internalType": "address",
          "name": "",
          "type": "address"
        }
      ],
      "name": "userApprovalExpiry",
      "outputs": [
        {
          "internalType": "uint256",
          "name": "",
          "type": "uint256"
        }
      ],
      "stateMutability": "view",
      "type": "function"
    },
    {
      "inputs": [],
      "name": "version",
      "outputs": [
        {
          "internalType": "string",
          "name": "",
          "type": "string"
        }
      ],
      "stateMutability": "pure",
      "type": "function"
    }
  ],
  "bytecode": "0x60c03461011357601f6118e638819003918201601f19168301916001600160401b038311848410176101175780849260209460405283398101031261011357516001600160a01b0381168103610113573060805260a0525f5160206118c65f395f51905f525460ff8160401c16610104576002600160401b03196001600160401b038216016100ae575b60405161179a908161012c82396080518181816108690152610939015260a051815050f35b6001600160401b0319166001600160401b039081175f5160206118c65f395f51905f52556040519081527fc7f505b2f371ae2175ee4913f4499e1f2633a7b5936321eed1cdaeb6115181d290602090a15f610089565b63f92ee8a960e01b5f5260045ffd5b5f80fd5b634e487b7160e01b5f52604160045260245ffdfe6080806040526004361015610012575f80fd5b5f3560e01c90816301ffc9a71461105657508063162dc64d1461101c57806317f6fe5b14610fdf578063182c78dc14610de65780631a14c87814610dae578063248a9ca314610d6f5780632d9ffc3214610d145780632f2ff15d14610cca57806336568abe14610c76578063485cc95514610ac75780634f1ef286146108bd57806352d1902d1461085757806354fd4d5014610810578063572b6c05146107dc5780635d0d1662146107c0578063689f5a1c14610741578063736d3b6a146107245780637da0a877146106fd57806391d14854146106a857806395a89c4714610613578063a217fddf146105f9578063a43058171461049a578063ad3cb1cc14610453578063d547741f14610402578063f5542f2d1461017b5763f855ec4e1461013a575f80fd5b34610177576020366003190112610177576001600160a01b0361015b6110a9565b165f526002602052602060ff60405f2054166040519015158152f35b5f80fd5b34610177576060366003190112610177576101946110a9565b61019c6110bf565b6044359067ffffffffffffffff821161017757366023830112156101775781600401359267ffffffffffffffff84116101775760248301926024853692010111610177576101e8611621565b6001600160a01b0381165f9081527f6f93c47de910d80630db852e09ddfad7656658433a81d9752bfae03a9672f162602052604090205460ff16156103be575060025f5160206117255f395f51905f5254146103af5760025f5160206117255f395f51905f52556001600160a01b03165f8181526001602052604090205442116103a0576001600160a01b0382165f8181526004602052604090205490929060ff161561039157815f52600260205260ff60405f2054161561034e575b5f809160405187878237828189810182815203925af1926102c461120e565b931561032b57610327947fbd0123ee3a8dad3bc2777bd706a3d4b7b89a6f4f7d175b1e00e36558e94d83ab916102ff6040519283928361123d565b0390a360015f5160206117255f395f51905f5255604051918291602083526020830190611158565b0390f35b604051636dadd7df60e11b815290819061034a9087906004840161123d565b0390fd5b815f52600360205260405f2063ffffffff60e01b85351690815f5260205260ff60405f2054161561037f57506102a5565b63ff1ad74960e01b5f5260045260245ffd5b63584b7e7160e01b5f5260045ffd5b634aad99a560e11b5f5260045ffd5b633ee5aeb560e01b5f5260045ffd5b63e2517d3f60e01b5f9081526001600160a01b03919091166004527f0941b16e931bf950a779d04f1fe80664559f8035f4da8fbd6f83dbdb5c43364a602452604490fd5b34610177576040366003190112610177576104516004356104216110bf565b9061044c610447825f525f5160206117055f395f51905f52602052600160405f20015490565b6112cc565b611578565b005b34610177575f36600319011261017757610327604051610474604082611106565b60058152640352e302e360dc1b6020820152604051918291602083526020830190611158565b34610177576040366003190112610177576004358015158082036101775760243567ffffffffffffffff8111610177576104d89036906004016110d5565b6104e0611621565b936105bb575b91926001600160a01b0316915f5b81811061054157507fdec09208725703c443c64e3dbbabfd335046e9da49a4059eb4e976ed467d9fca92936105366040519384936040855260408501916111b5565b9060208301520390a2005b80610557610552600193858761117c565b6111a0565b855f52600360205260405f209063ffffffff60e01b1690815f5260205260ff60405f205416806105b2575b61058e575b50016104f4565b855f52600360205260405f20905f5260205260405f2060ff19815416905586610587565b50801515610582565b6001600160a01b0384165f81815260016020526040902054156105ea575f5260016020525f60408120556104e6565b633cbca8fb60e11b5f5260045ffd5b34610177575f3660031901126101775760206040515f8152f35b346101775760203660031901126101775760043567ffffffffffffffff8111610177576106449036906004016110d5565b9061064d611264565b5f5b82811061065857005b6001600160a01b0361067361066e83868661117c565b6111fa565b16908115610699576001915f52600460205260405f208260ff198254161790550161064f565b63d92e233d60e01b5f5260045ffd5b34610177576040366003190112610177576106c16110bf565b6004355f525f5160206117055f395f51905f5260205260405f209060018060a01b03165f52602052602060ff60405f2054166040519015158152f35b34610177575f366003190112610177575f546040516001600160a01b039091168152602090f35b34610177575f3660031901126101775760206040516224ea008152f35b346101775760203660031901126101775760043567ffffffffffffffff8111610177576107729036906004016110d5565b9061077b611264565b5f5b82811061078657005b6001600160a01b0361079c61066e83868661117c565b16908115610699576001915f52600460205260405f2060ff1981541690550161077d565b34610177575f366003190112610177576020604051610e108152f35b346101775760203660031901126101775760206107f76110a9565b5f546040516001600160a01b0392831691909216148152f35b34610177575f36600319011261017757610327604051610831604082611106565b60058152640312e302e360dc1b6020820152604051918291602083526020830190611158565b34610177575f366003190112610177577f00000000000000000000000000000000000000000000000000000000000000006001600160a01b031630036108ae5760206040515f5160206116e55f395f51905f528152f35b63703e46dd60e11b5f5260045ffd5b6040366003190112610177576108d16110a9565b6024359067ffffffffffffffff82116101775736602383011215610177578160040135906108fe8261113c565b9161090c6040519384611106565b8083526020830193366024838301011161017757815f926024602093018737840101526001600160a01b037f000000000000000000000000000000000000000000000000000000000000000016308114908115610aa5575b506108ae57610971611264565b6040516352d1902d60e01b81526001600160a01b0382169390602081600481885afa5f9181610a71575b506109b35784634c9c8ce360e01b5f5260045260245ffd5b805f5160206116e55f395f51905f52869203610a5f5750823b15610a4d575f5160206116e55f395f51905f5280546001600160a01b031916821790557fbc7cd75a20ee27fd9adebab32041f755214dbc6bffa90cc0225b39da2e5c2d3b5f80a2825115610a34575f8091610451945190845af4610a2e61120e565b91611686565b50505034610a3e57005b63b398979f60e01b5f5260045ffd5b634c9c8ce360e01b5f5260045260245ffd5b632a87526960e21b5f5260045260245ffd5b9091506020813d602011610a9d575b81610a8d60209383611106565b810103126101775751908661099b565b3d9150610a80565b5f5160206116e55f395f51905f52546001600160a01b03161415905084610964565b3461017757604036600319011261017757610ae06110a9565b610ae86110bf565b905f5160206117455f395f51905f525460ff8160401c16159267ffffffffffffffff821680159081610c6e575b6001149081610c64575b159081610c5b575b50610c4c5767ffffffffffffffff1982166001175f5160206117455f395f51905f5255610ba49184610c20575b50610b5d61165b565b610b6561165b565b610b6d61165b565b610b7561165b565b610b7d61165b565b60015f5160206117255f395f51905f5255610b9e610b99611621565b611328565b506113ea565b5060018060a01b03166bffffffffffffffffffffffff60a01b5f5416175f55610bc957005b68ff0000000000000000195f5160206117455f395f51905f5254165f5160206117455f395f51905f52557fc7f505b2f371ae2175ee4913f4499e1f2633a7b5936321eed1cdaeb6115181d2602060405160018152a1005b68ffffffffffffffffff191668010000000000000001175f5160206117455f395f51905f525584610b54565b63f92ee8a960e01b5f5260045ffd5b90501585610b27565b303b159150610b1f565b859150610b15565b3461017757604036600319011261017757610c8f6110bf565b6001600160a01b03610c9f611621565b166001600160a01b03821603610cbb5761045190600435611578565b63334bd91960e11b5f5260045ffd5b3461017757604036600319011261017757610451600435610ce96110bf565b90610d0f610447825f525f5160206117055f395f51905f52602052600160405f20015490565b6114c7565b3461017757604036600319011261017757610d2d6110a9565b6024359063ffffffff60e01b82168092036101775760018060a01b03165f52600360205260405f20905f52602052602060ff60405f2054166040519015158152f35b34610177576020366003190112610177576020610da66004355f525f5160206117055f395f51905f52602052600160405f20015490565b604051908152f35b34610177576020366003190112610177576001600160a01b03610dcf6110a9565b165f526001602052602060405f2054604051908152f35b346101775760403660031901126101775760043560243567ffffffffffffffff811161017757610e1a9036906004016110d5565b8215919082158080610fc8575b610fa857610e33611621565b9382610f0357610ef4576001600160a01b0384165f908152600260205260409020805460ff191660011790555b610eb5575b7fc568646d3a48db8c47751060bab54410d8dbcb05aadce0085c670fba080eb8b192610e9e6040519384936040855260408501916111b5565b60208301959095526001600160a01b0316930390a2005b83420192834211610ee0576001600160a01b0381165f90815260016020526040902093909355610e65565b634e487b7160e01b5f52601160045260245ffd5b630ad3fe5f60e21b5f5260045ffd5b506001600160a01b0384165f5b838110610f3057505f52600260205260405f2060ff198154169055610e60565b80610f41610552600193878961117c565b835f52600360205260405f209063ffffffff60e01b1690815f5260205260ff60405f2054161580610f9f575b610f79575b5001610f10565b835f52600360205260405f20905f5260205260405f208260ff1982541617905588610f72565b50801515610f6d565b8463026b9d2d60e11b5f52600452610e106024526224ea0060445260645ffd5b50610e10851080610e2757506224ea008511610e27565b34610177576020366003190112610177576001600160a01b036110006110a9565b165f526004602052602060ff60405f2054166040519015158152f35b34610177575f3660031901126101775760206040517f0941b16e931bf950a779d04f1fe80664559f8035f4da8fbd6f83dbdb5c43364a8152f35b34610177576020366003190112610177576004359063ffffffff60e01b821680920361017757602091637965db0b60e01b8114908115611098575b5015158152f35b6301ffc9a760e01b14905083611091565b600435906001600160a01b038216820361017757565b602435906001600160a01b038216820361017757565b9181601f840112156101775782359167ffffffffffffffff8311610177576020808501948460051b01011161017757565b90601f8019910116810190811067ffffffffffffffff82111761112857604052565b634e487b7160e01b5f52604160045260245ffd5b67ffffffffffffffff811161112857601f01601f191660200190565b805180835260209291819084018484015e5f828201840152601f01601f1916010190565b919081101561118c5760051b0190565b634e487b7160e01b5f52603260045260245ffd5b356001600160e01b0319811681036101775790565b916020908281520191905f905b8082106111cf5750505090565b90919283359063ffffffff60e01b8216809203610177576020816001938293520194019201906111c2565b356001600160a01b03811681036101775790565b3d15611238573d9061121f8261113c565b9161122d6040519384611106565b82523d5f602084013e565b606090565b90918060409360208452816020850152848401375f828201840152601f01601f1916010190565b61126c611621565b6001600160a01b0381165f9081527fb7db2dd08fcb62d0c9e08c51941cae53c267786a0b75803fb7960902fc8ef97d602052604090205460ff16156112ae5750565b63e2517d3f60e01b5f5260018060a01b03166004525f60245260445ffd5b6112d4611621565b815f525f5160206117055f395f51905f5260205260405f2060018060a01b0382165f5260205260ff60405f2054161561130b575050565b63e2517d3f60e01b5f5260018060a01b031660045260245260445ffd5b6001600160a01b0381165f9081527fb7db2dd08fcb62d0c9e08c51941cae53c267786a0b75803fb7960902fc8ef97d602052604090205460ff166113e5576001600160a01b038181165f9081527fb7db2dd08fcb62d0c9e08c51941cae53c267786a0b75803fb7960902fc8ef97d60205260409020805460ff191660011790556113b0611621565b16906001600160a01b03165f7f2f8788117e7eff1d82e926ec794901d17c78024a50270940304540a733656f0d8180a4600190565b505f90565b6001600160a01b0381165f9081527f6f93c47de910d80630db852e09ddfad7656658433a81d9752bfae03a9672f162602052604090205460ff166113e5576001600160a01b038181165f9081527f6f93c47de910d80630db852e09ddfad7656658433a81d9752bfae03a9672f16260205260409020805460ff19166001179055611472611621565b16906001600160a01b03167f0941b16e931bf950a779d04f1fe80664559f8035f4da8fbd6f83dbdb5c43364a7f2f8788117e7eff1d82e926ec794901d17c78024a50270940304540a733656f0d5f80a4600190565b5f8181525f5160206117055f395f51905f52602090815260408083206001600160a01b038616845290915290205460ff16611572575f8181525f5160206117055f395f51905f52602090815260408083206001600160a01b0386811685529252909120805460ff1916600117905561153d611621565b16916001600160a01b0316907f2f8788117e7eff1d82e926ec794901d17c78024a50270940304540a733656f0d5f80a4600190565b50505f90565b5f8181525f5160206117055f395f51905f52602090815260408083206001600160a01b038616845290915290205460ff1615611572575f8181525f5160206117055f395f51905f52602090815260408083206001600160a01b0386811685529252909120805460ff191690556115ec611621565b16916001600160a01b0316907ff6391f5c32d9c69d2a47ea670b442974b53935d1edc7fd64eb21e047a839171b5f80a4600190565b601436101580611648575b15611644576013193601368111610177573560601c90565b3390565b505f546001600160a01b0316331461162c565b60ff5f5160206117455f395f51905f525460401c161561167757565b631afcd79f60e31b5f5260045ffd5b906116aa575080511561169b57602081519101fd5b63d6bda27560e01b5f5260045ffd5b815115806116db575b6116bb575090565b639996b31560e01b5f9081526001600160a01b0391909116600452602490fd5b50803b156116b356fe360894a13ba1a3210667c828492db98dca3e2076cc3735a920a3ca505d382bbc02dd7bc7dec4dceedda775e58dd541e08a116c6c53815c0bd028192f7b6268009b779b17422d0df92223018b32b4d1fa46e071723d6817e2486d003becc55f00f0c57e16840df040f15088dc2f81fe391c3923bec73e23a9662efc9c229c6a00a26469706673582212208d929691f344cb28edfea03b73e1b01da2da520f286cbfe696062adcbd952be164736f6c634300081e0033f0c57e16840df040f15088dc2f81fe391c3923bec73e23a9662efc9c229c6a00",
  "linkReferences": {},
  "deployedLinkReferences": {},
  "immutableReferences": {
    "996": [
      {
        "length": 32,
        "start": 2153
      },
      {
        "length": 32,
        "start": 2361
      }
    ]
  },
  "inputSourceName": "project/contracts/modules/ServantModule.module.sol",
  "buildInfoId": "solc-0_8_30-bb64df0113f34fcdcb9e01e616e52259993abb61"
}